S00E00007461736B5F322E73726563D2
S11300000C942A000C9434000C9434000C943400A6
S11300100C9434000C9434000C9434000C9434008C
S11300200C9434000C9434000C9434000C9434007C
S11300300C9434000C9434000C9434000C9434006C
S11300400C9434000C9434000C9434000C9434005C
S11300500C94340011241FBECFE5D8E0DEBFCDBF21
S11300600E9436000C947B000C9400008AB38F63CA
S11300708ABB20E030E016C04BB381E090E0022E52
S113008002C0880F991F0A94E2F7842B8BBB4FE9B7
S113009086E891E0415080409040E1F700C00000C4
S11300A02F5F3F4F263031053CF325E030E017C089
S11300B04BB381E090E0022E02C0880F991F0A948E
S11300C0E2F7809584238BBB4FE986E891E04150A9
S11300D080409040E1F700C00000215031093323F3
S11300E03CF72FE34DE083E0215040408040E1F7AE
S10D00F000C00000BECFF894FFCF5B
S9030000FC
