S00E00004472697665722E73726563AA
S11300000C9432000C946B010C9492010C94B90181
S11300100C942E020C9455020C944F000C944F0037
S11300200C944F000C944F000C94E0010C940702C4
S11300300C944F000C945E030C9485030C94AC0355
S11300400C944F000C944F000C944F000C944F00F0
S11300500C944F00B802C502D202DE02EB02F80291
S11300600503120311241FBECFE5D8E0DEBFCDBFC8
S113007010E0A0E6B0E0E4EDF7E002C005900D92D8
S1130080AE36B107D9F720E0AEE6B0E001C01D926C
S1130090AD3BB207E1F70E9436010C94E8030C94DF
S11300A000008BB384608BBB83ED90E30197F1F781
S11300B000C000008BB38B7F8BBB08958AB31ABA40
S11300C08BB381608BBB8BB38D7F8BBB0E94510044
S11300D08AB38FEF8ABB8BB38E7F8BBB0895CF938C
S11300E0C82F0E945E000E945E008BB39C2F9695E1
S11300F098778778892B8BBB8BB38C7F8BBB0E94C3
S113010051002BB38C2F90E0880F991F880F991FF3
S1130110880F991F922F97788877892B8BBB8BB385
S11301208C7F8BBB0E945100CF91089581E00E9487
S11301306F00089587E893E10197F1F700C000008C
S11301408AB387608ABB8BB3887F8BBB8FEF8ABBF4
S113015085EA9EE00197F1F700C000000E94960036
S113016082E00E946F0088E20E946F0086E00E9495
S11301706F0080E80E946F008CE00E946F00089579
S1130180CF93C82F8BB39C2F969598778778892B1C
S11301908BBB8BB382608BBB8BB38E7F8BBB0E947C
S11301A051002BB38C2F90E0880F991F880F991F53
S11301B0880F991F922F97788877892B8BBB8BB3E5
S11301C082608BBB8BB38E7F8BBB0E945100CF911F
S11301D00895823039F4603168F480EC860F0E940F
S11301E06F000895813031F4603120F480E8860F87
S11301F00E946F0008950F931F93CF93DF938C0198
S1130200C0E0D0E018C00F5F1F4F0E94C0002196CD
S1130210C031D10529F460E082E00E94E9000BC0FE
S1130220C032D10541F40E94960060E081E00E9452
S1130230E900C0E0D0E0F80180818111E4CFDF91D2
S1130240CF911F910F910895CF93DF9381E00E9486
S11302509D02C0E6D0E0888360E0CE010E947C026B
S113026088810E94C000DF91CF9108950E949A0076
S1130270E7E7F0E086E0848315821782168283E341
S113028090E09383828388E18083118284E291E009
S1130290918780879387828795878487CF010E947F
S11302A01C03C0E0D0E007C060E0CE01805A9F4F3D
S11302B00E947C022196E0E6F0E001900020E9F73C
S11302C03197E056F040CE17DF0770F380E690E0F8
S11302D00E94FB00FFCF1F920F920FB60F921124C2
S11302E02F933F934F935F936F937F938F939F933A
S11302F0AF93BF93EF93FF93E0918700F091880051
S11303000995FF91EF91BF91AF919F918F917F914B
S11303106F915F914F913F912F910F900FBE0F906E
S11303201F9018951F920F920FB60F9211242F93BE
S11303303F934F935F936F937F938F939F93AF9369
S1130340BF93EF93FF93E0918B00F0918C0009959C
S1130350FF91EF91BF91AF919F918F917F916F9199
S11303605F914F913F912F910F900FBE0F901F906F
S113037018951F920F920FB60F9211242F933F934B
S11303804F935F936F937F938F939F93AF93BF9399
S1130390EF93FF93E0918F00F09190000995FF9106
S11303A0EF91BF91AF919F918F917F916F915F91E9
S11303B04F913F912F910F900FBE0F901F90189562
S11303C01F920F920FB60F9211242F933F934F93C6
S11303D05F936F937F938F939F93AF93BF93EF93A9
S11303E0FF93E0919700F09198000995FF91EF91A8
S11303F0BF91AF919F918F917F916F915F914F9139
S11304003F912F910F900FBE0F901F9018951F9240
S11304100F920FB60F9211242F933F934F935F9334
S11304206F937F938F939F93AF93BF93EF93FF93B8
S1130430E0919900F0919A000995FF91EF91BF9195
S1130440AF919F918F917F916F915F914F913F9168
S11304502F910F900FBE0F901F9018951F920F921F
S11304600FB60F9211242F933F934F935F936F9383
S11304707F938F939F93AF93BF93EF93FF93E091F9
S1130480AB00F091AC000995FF91EF91BF91AF9152
S11304909F918F917F916F915F914F913F912F9198
S11304A00F900FBE0F901F9018951F920F920FB6CA
S11304B00F9211242F933F934F935F936F937F93E6
S11304C08F939F93AF93BF93EF93FF93E091AD000E
S11304D0F091AE000995FF91EF91BF91AF919F917B
S11304E08F917F916F915F914F913F912F910F90D9
S11304F00FBE0F901F90189590936F0080936E001D
S1130500611102C05D9BFECF2091B3002E3021F01B
S1130510FC0180818CB90FC0FC012081318130FF46
S113052004C02AB121602AB903C02AB12E7F2AB996
S1130530FC0180818CB980E00895811102C05F9B29
S1130540FECF8091B3008E3019F08CB190E0089505
S11305508BB18AB18CB18FEF9FEF089590E0883012
S1130560910508F068C0FC01E65DFF4F0C94E203BE
S11305708FB780688FBF8AB180688AB98AB18F7B50
S11305808AB98AB18F7D8AB908958FB780688FBF81
S11305908AB180648AB98AB18F778AB98AB18F7D2A
S11305A08AB908958FB780688FBF8AB18F778AB967
S11305B08AB18F7B8AB98AB180628AB98FB7806821
S11305C08FBF8AB180688AB98AB180648AB98AB1D6
S11305D08F7D8AB908958FB780688FBF8AB180688C
S11305E08AB98AB180628AB98AB18F7B8AB908953F
S11305F08FB780688FBF8AB180648AB98AB18062FC
S11306008AB98AB18F778AB908958FB780688FBF06
S11306108AB180688AB98AB180648AB98AB18062F1
S11306208AB908958AB18F778AB98AB18F7B8AB9DA
S11306308AB18F7D8AB90895CF93DF93FC019EE040
S1130640AFEAB0E001900D929A95E1F780B58F770B
S113065080BDEFEAF0E0838180BD828189B98BB1EE
S11306608D7F8BB980B5806880BD94819E3039F4CC
S113067080B5866080BD8AB184608AB906C080B5C1
S1130680892B80BD8AB18B7F8AB990B5CFEAD0E03F
S11306908981892B80BD90B58D81892B80BD90B5D2
S11306A08E81892B80BD8F810E94AE029AB1888190
S11306B0892B8AB980E0DF91CF9108951F920F9220
S11306C00FB60F9211242F933F934F935F936F9321
S11306D07F938F939F93AF93BF93EF93FF93E09197
S11306E0B700F091B8000995FF91EF91BF91AF91D8
S11306F09F918F917F916F915F914F913F912F9136
S11307000F900FBE0F901F9018951F920F920FB667
S11307100F9211242F933F934F935F936F937F9383
S11307208F939F93AF93BF93EF93FF93E091B700A1
S1130730F091B8000995FF91EF91BF91AF919F910E
S11307408F917F916F915F914F913F912F910F9076
S11307500FBE0F901F9018951F920F920FB60F9215
S113076011242F933F934F935F936F937F938F93B2
S11307709F93AF93BF93EF93FF93CF93DF931F9216
S1130780CDB7DEB78AE2898360E0CE0101960E948C
S11307907C02E091B700F091B80009950F90DF91C9
S11307A0CF91FF91EF91BF91AF919F918F917F91E5
S11307B06F915F914F913F912F910F900FBE0F90CA
S11307C01F901895EE0FFF1F0590F491E02D0994EA
S10707D0F894FFCFC7
S11107D44D61686D6F756420456964200000F6
S9030000FC
