:100000000C942A000C94CD020C94F4020C941B0363
:100010000C9447000C9447000C9447000C94470044
:100020000C9447000C9447000C9447000C94470034
:100030000C9447000C9447000C9447000C94470024
:100040000C9447000C9447000C9447000C94470014
:100050000C94470011241FBECFE5D8E0DEBFCDBF12
:1000600010E0A0E6B0E0E8E8F6E002C005900D92EE
:10007000A23CB107D9F720E0A2ECB0E001C01D928C
:10008000A33DB207E1F70E9442010C9442030C9495
:10009000000088B3886088BB83ED90E30197F1F797
:1000A00000C0000088B3877F88BB08958AB31ABA5E
:1000B00088B3846088BB88B38D7F88BB0E94490069
:1000C0008AB38FEF8ABB88B38B7F88BB0895CF93A9
:1000D000C82F0E94560087B3866087BB88B3897F8C
:1000E00088BBCBBB89EF90E00197F1F700C000001F
:1000F0000E944900CF91089581E00E946700089511
:1001000087E893E10197F1F700C0000087B38E60A4
:1001100087BB88B3817F88BB8FEF8ABB85EA9EE06F
:100120000197F1F700C000000E947C0088E30E9464
:10013000670086E00E94670080E80E9467008CE00C
:100140000E9467000895CF93C82F0E945600CBBB32
:1001500088B38B7F88BB88B3826088BB89EF90E0CF
:100160000197F1F700C000000E944900CF91089567
:10017000823039F4603168F480EC860F0E946700A9
:100180000895813031F4603120F480E8860F0E94B8
:10019000670008950F931F93CF93DF938C01C0E006
:1001A000D0E018C00F5F1F4F0E94A3002196C031FE
:1001B000D10529F460E082E00E94B8000BC0C03293
:1001C000D10541F40E947C0060E081E00E94B8000B
:1001D000C0E0D0E0F80180818111E4CFDF91CF91C0
:1001E0001F910F9108950F931F93CF93DF938C016D
:1001F000D62F80E40E946700C0E007C0F801EC0F32
:10020000F11D80810E94A300CF5FC830B8F36D2F2D
:1002100081E00E94B80080E00E94A300DF91CF91AE
:100220001F910F91089541E062E084E390E00E9405
:10023000150262E085E390E00E943E022FE78AE12A
:1002400096E0215080409040E1F700C000001092FD
:10025000C200089541E062E084E390E00E9415024C
:1002600062E085E390E00E9432022FE78AE196E0A7
:10027000215080409040E1F700C0000081E0809371
:10028000C2000895FF920F931F93CF93DF93CDB7D2
:10029000DEB728970FB6F894DEBF0FBECDBF0E9421
:1002A000800088E690E00E94CA002FE986E891E08D
:1002B000215080409040E1F700C000000E947C0087
:1002C00088E0E0E6F0E0DE01119601900D928A955B
:1002D000E1F765E0CE0101960E94F3000E947C00E8
:1002E00003EC10E0F80110820F2EF3E0FF2EF02D4A
:1002F000F1828AE291E09383828340E062E081E3CD
:1003000090E00E94150240E063E081E390E00E94EB
:100310001502C8010E94590286E790E00E94CA00B7
:100320000E947C0081E0F8018083F18283E191E00A
:100330009383828340E062E081E390E00E941502B3
:1003400040E063E081E390E00E941502C8010E9452
:10035000590281E890E00E94CA000E947C0010923D
:10036000C2000E947C0010E019C08091C200813060
:1003700039F48CE890E00E94CA000E947C0010C012
:10038000612FCE0101960E94F3008FE493EC019758
:10039000F1F700C000000E947C001F5F10312CF3B9
:1003A000103101F58AE990E00E94CA000E947C00A9
:1003B00023C08091C200811107C087EA90E00E94AB
:1003C000CA000E947C0010C0612FCE0101960E94DD
:1003D000F300EFE4F3EC3197F1F700C000000E9466
:1003E0007C00115011232CF71123C4F685EB90E00B
:1003F0000E94CA000E947C00FFE72AE186E0F150DB
:1004000020408040E1F700C000000E947C0080E0B6
:1004100090E028960FB6F894DEBF0FBECDBFDF91F7
:10042000CF911F910F91FF900895413061F421E029
:1004300030E002C0220F331F6A95E2F7FC013081E1
:10044000232B2083089541110CC021E030E002C02D
:10045000220F331F6A95E2F72095FC013081232398
:100460002083089521E030E002C0220F331F6A95F7
:10047000E2F7FC013081232B2083089521E030E056
:1004800002C0220F331F6A95E2F7FC013081232757
:1004900020830895FC018081882329F0813029F090
:1004A000823029F4089580E0089581E0089580E085
:1004B0000895CF93DF93EC010E944A0290E0FC0183
:1004C000EE0FFF1FEE0FFF1FE953FF4F48815981C9
:1004D0006A817B8140835183628373832FB7206855
:1004E0002FBF2081211120C02BB720642BBF880F84
:1004F000991F880F991FFC01E953FF4F81818130BB
:1005000021F485B7816085BF45C0811103C085B7DF
:1005100085BF40C0823021F485B7826085BF3AC074
:1005200085B7836085BF36C0213001F52BB72068C1
:100530002BBF880F991F880F991FFC01E953FF4FAC
:100540008181813021F485B7846085BF23C081110A
:1005500003C085B785BF1EC0823021F485B788608F
:1005600085BF18C085B78C6085BF14C02BB72062CB
:100570002BBF880F991F880F991FFC01E953FF4F6C
:100580008181823021F484B78F7B84BF03C084B71C
:10059000806484BFDF91CF9108951F920F920FB6B0
:1005A0000F9211242F933F934F935F936F937F93F9
:1005B0008F939F93AF93BF93EF93FF93E091C90005
:1005C000F091CA000995FF91EF91BF91AF919F9172
:1005D0008F917F916F915F914F913F912F910F90EC
:1005E0000FBE0F901F9018951F920F920FB60F928B
:1005F00011242F933F934F935F936F937F938F9328
:100600009F93AF93BF93EF93FF93E091CD00F09151
:10061000CE000995FF91EF91BF91AF919F918F917E
:100620007F916F915F914F913F912F910F900FBEEE
:100630000F901F9018951F920F920FB60F921124D2
:100640002F933F934F935F936F937F938F939F93DA
:10065000AF93BF93EF93FF93E091D100F091D2005D
:100660000995FF91EF91BF91AF919F918F917F91EC
:100670006F915F914F913F912F910F900FBE0F900F
:080680001F901895F894FFCFBC
:1006880000040E0F0F0E040048454C4C4F204D61DE
:10069800686D6F756400494E54203120474F4F44B0
:1006A80000494E54203220474F4F44005377697415
:1006B800636820746F2074776F0074776F206C6F95
:1006C8006F6F6F6F6F730053776974636820746F0F
:1006D800206F6E65006F6E65206C6F6F6F6F6F6F48
:0206E80073009D
:00000001FF
