S00E00004472697665722E73726563AA
S11300000C942A000C940D010C9437010C9461019A
S11300100C9447000C9447000C9447000C94470040
S11300200C9447000C9447000C9447000C94470030
S11300300C9447000C9447000C9447000C94470020
S11300400C9447000C9447000C9447000C94470010
S11300500C94470011241FBECFE5D8E0DEBFCDBF0E
S113006010E0A0E6B0E0EAE1F3E002C005900D92F2
S1130070A036B107D9F720E0A0E6B0E001C01D9298
S1130080A636B207E1F70E9455000C948B010C943C
S1130090000060E08BE390E00E94A5008FE493EC05
S11300A00197F1F700C000000895E0E6F0E0108247
S11300B082E0818389E490E09383828341E060E07D
S11300C08AE390E00E94880040E062E081E390E0EF
S11300D00E94880040E063E081E390E00E94880091
S11300E080E690E00E94B10060E08BE390E00E9423
S11300F0A5002FE38DE093E0215080409040E1F78C
S113010000C0000060E08BE390E00E94A500FFCFF8
S1130110413061F421E030E002C0220F331F6A95C0
S1130120E2F7FC013081232B2083089541110CC098
S113013021E030E002C0220F331F6A95E2F72095D8
S1130140FC01308123232083089521E030E002C0A4
S1130150220F331F6A95E2F7FC01308123272083A5
S1130160089590936500809364008FB780688FBF73
S1130170E0916400F0916500808181111DC08BB70E
S113018080648BBFE0916400F091650081818130CF
S113019021F485B7816085BF0895811103C085B7B7
S11301A085BF0895823021F485B7826085BF0895A4
S11301B085B7836085BF08958130E9F48BB7806883
S11301C08BBFE0916400F09165008181813021F45E
S11301D085B7846085BF0895811103C085B785BF45
S11301E00895823021F485B7886085BF089585B766
S11301F08C6085BF08958BB780628BBFE0916400EB
S1130200F09165008181823021F484B78F7B84BFB3
S1130210089584B7806484BF08951F920F920FB627
S11302200F9211242F933F934F935F936F937F9378
S11302308F939F93AF93BF93EF93FF93E0916400E9
S1130240F09165000280F381E02D0995FF91EF9113
S1130250BF91AF919F918F917F916F915F914F91DA
S11302603F912F910F900FBE0F901F9018951F92E2
S11302700F920FB60F9211242F933F934F935F93D6
S11302806F937F938F939F93AF93BF93EF93FF935A
S1130290E0916400F09165000280F381E02D0995FE
S11302A0FF91EF91BF91AF919F918F917F916F914A
S11302B05F914F913F912F910F900FBE0F901F9020
S11302C018951F920F920FB60F9211242F933F93FC
S11302D04F935F936F937F938F939F93AF93BF934A
S11302E0EF93FF93E0916400F09165000280F38145
S11302F0E02D0995FF91EF91BF91AF919F918F915F
S11303007F916F915F914F913F912F910F900FBE0D
S10D03100F901F901895F894FFCF8A
S9030000FC
