:100000000C942A000C940F020C9436020C945D029E
:100010000C9447000C9447000C9447000C94470044
:100020000C9447000C9447000C9447000C94470034
:100030000C9447000C9447000C9447000C94470024
:100040000C9447000C9447000C9447000C94470014
:100050000C94470011241FBECFE5D8E0DEBFCDBF12
:1000600010E0A0E6B0E0E4E3FDE002C005900D92F0
:10007000A838B107D9F720E0A8E8B0E001C01D9288
:10008000AD39B207E1F70E9490010C9498060C94E8
:10009000000088B3886088BB83ED90E30197F1F797
:1000A00000C0000088B3877F88BB089584B314BA6A
:1000B00088B3846088BB88B38D7F88BB0E94490069
:1000C00084B38FEF84BB88B38B7F88BB0895CF93B5
:1000D000C82F0E9456000E945600C5BB88B3897F76
:1000E00088BB89EF90E00197F1F700C000000E9403
:1000F00049000E94560085B38F709C2F907F892BFA
:1001000085BB88B3897F88BB0E94490025B330E155
:10011000C39FC0011124922F9F70892B85BB88B388
:10012000897F88BB0E944900CF91089581E00E9499
:100130006700089587E893E10197F1F700C0000098
:1001400087B38E6087BB88B3817F88BB8FEF84BB0A
:1001500085EA9EE00197F1F700C000000E9496003A
:1001600082E00E94670088E20E94670086E00E94A9
:10017000670080E80E9467008CE00E946700089595
:10018000CF93C82F85B38F709C2F907F892B85BB11
:1001900088B3826088BB88B38B7F88BB0E9449008C
:1001A00025B330E1C39FC0011124922F9F70892B8A
:1001B00085BB88B3826088BB88B38B7F88BB0E9475
:1001C0004900CF910895823039F4603168F480ECB1
:1001D000860F0E9467000895813031F4603120F469
:1001E00080E8860F0E94670008950F931F93CF93B6
:1001F000DF938C01C0E0D0E018C00F5F1F4F0E945A
:10020000C0002196C031D10529F460E082E00E944F
:10021000E3000BC0C032D10541F40E94960060E0BB
:1002200081E00E94E300C0E0D0E0F801808181110C
:10023000E4CFDF91CF911F910F9108950F931F93FA
:10024000CF93DF93CDB7DEB764970FB6F894DEBFD8
:100250000FBECDBF9F938F937F936F9380E690E007
:100260009F938F938E010F5F1F4F1F930F930E94D9
:10027000AE03C8010E94F5000FB6F894DEBF0FBEB2
:10028000CDBF64960FB6F894DEBF0FBECDBFDF9131
:10029000CF911F910F910895FC0180819181A281DE
:1002A00080938A0090938B00A0938C00EAE8F0E0A2
:1002B000618180810E94E301089580918C000E94F9
:1002C000FD019093890080938800089580918C00AF
:1002D0000E94FD019093890080938800BC0180E01A
:1002E00090E00E94B30220E030E040EA50E40E9437
:1002F000190320E030E048EC52E40E94190320E0AA
:1003000030E040E85AE30E9419030E94840260939F
:100310008D0070938E0080938F00909390000895CD
:100320000E949A00EAE8F0E081E0808386E0818321
:1003300083E0828383E690E00E94F5002FE986E85F
:1003400091E0215080409040E1F700C000000E9401
:1003500096008AE890E00E944C0181E790E00E94BC
:10036000F5002FE986E891E0215080409040E1F7C8
:1003700000C000000E9496008AE790E00E94F5000D
:100380008AE890E00E945D01BC0180E090E00E945C
:100390001E0160E082E00E94E30081E890E00E949C
:1003A000F5008AE890E00E9466010E941E012FED90
:1003B00083E994E0215080409040E1F700C00000C4
:1003C0000E949600D9CF813039F018F0823041F088
:1003D0000AC087B187B907C087B1806487B903C0F5
:1003E00087B1806C87B986B1887F86B986B1682B62
:1003F00066B986B1806886B9089597B1907E97B93D
:1004000097B1892B87B986B1806486B93699FECFBA
:1004100024B185B190E0982F8827822B08951F92F0
:100420000F920FB60F9211242F933F934F935F9328
:100430006F937F938F939F93AF93BF93EF93FF93AC
:10044000E0919300F09194000995FF91EF91BF9195
:10045000AF919F918F917F916F915F914F913F915C
:100460002F910F900FBE0F901F9018951F920F9213
:100470000FB60F9211242F933F934F935F936F9377
:100480007F938F939F93AF93BF93EF93FF93E091ED
:100490009700F09198000995FF91EF91BF91AF916E
:1004A0009F918F917F916F915F914F913F912F918C
:1004B0000F900FBE0F901F9018951F920F920FB6BE
:1004C0000F9211242F933F934F935F936F937F93DA
:1004D0008F939F93AF93BF93EF93FF93E0919B0014
:1004E000F0919C000995FF91EF91BF91AF919F9181
:1004F0008F917F916F915F914F913F912F910F90CD
:100500000FBE0F901F9018950E94F80288F09F5719
:1005100098F0B92F9927B751B0F0E1F0660F771F27
:10052000881F991F1AF0BA95C9F714C0B13091F01D
:100530000E941203B1E008950C941203672F782FE4
:100540008827B85F39F0B93FCCF3869577956795E2
:10055000B395D9F73EF490958095709561957F4F4E
:100560008F4F9F4F0895E89409C097FB3EF49095F4
:100570008095709561957F4F8F4F9F4F9923A9F07C
:10058000F92F96E9BB279395F6958795779567950B
:10059000B795F111F8CFFAF4BB0F11F460FF1BC04F
:1005A0006F5F7F4F8F4F9F4F16C0882311F096E9E2
:1005B00011C0772321F09EE8872F762F05C0662390
:1005C00071F096E8862F70E060E02AF09A95660F49
:1005D000771F881FDAF7880F9695879597F9089502
:1005E00057FD9058440F551F59F05F3F71F04795E4
:1005F000880F97FB991F61F09F3F79F087950895C9
:10060000121613061406551FF2CF4695F1DF08C0E7
:10061000161617061806991FF1CF86957105610504
:1006200008940895E894BB2766277727CB0197F9AC
:1006300008950E942C030C949D030E948F0338F0B0
:100640000E94960320F0952311F00C9486030C94DD
:100650008C0311240C9413030E94F00270F3959FF5
:10066000C1F3950F50E0551F629FF001729FBB27A9
:10067000F00DB11D639FAA27F00DB11DAA1F649F45
:100680006627B00DA11D661F829F2227B00DA11DF8
:10069000621F739FB00DA11D621F839FA00D611D7E
:1006A000221F749F3327A00D611D231F849F600D9F
:1006B000211D822F762F6A2F11249F5750409AF0C8
:1006C000F1F088234AF0EE0FFF1FBB1F661F771F54
:1006D000881F91505040A9F79E3F510580F00C941F
:1006E00086030C9413035F3FE4F3983ED4F386959E
:1006F00077956795B795F795E7959F5FC1F7FE2BBF
:10070000880F911D9695879597F9089597F99F679A
:1007100080E870E060E008959FEF80EC0895002489
:100720000A941616170618060906089500240A9456
:1007300012161306140605060895092E0394000CDC
:1007400011F4882352F0BB0F40F4BF2B11F460FF6B
:1007500004C06F5F7F4F8F4F9F4F0895AEE0B0E0B2
:10076000E4EBF3E00C946F060D891E8986E08C8320
:100770001A8309838FEF9FE79E838D83AE01475EC7
:100780005F4F6F89788DCE0101960E94D003EF8173
:10079000F885E00FF11F10822E96E4E00C948B0692
:1007A000ABE0B0E0E6EDF3E00C9461066C017B0198
:1007B0008A01FC0117821682838181FFCCC1CE01A0
:1007C00001963C01F6019381F70193FD859193FF1A
:1007D00081917F01882309F4BAC1853239F493FDF0
:1007E000859193FF81917F01853229F4B60190E0D4
:1007F0000E94C705E7CF912C212C312CFFE1F31586
:10080000D8F08B3279F038F4803279F08332A1F469
:10081000232D20611DC08D3261F0803369F4232DBA
:10082000216016C0832D8260382EE32DE4603E2EB9
:100830002AC0F32DF8601DC037FC2DC020ED280F15
:100840002A3040F08E32B9F436FC81C1232D206469
:10085000322E19C036FE06C08AE0989E200D112463
:10086000922E11C0EAE02E9E200D1124222EF32D8F
:10087000F0623F2E08C08C3621F4832D8068382E1C
:1008800002C0883641F4F70193FD859193FF819171
:100890007F018111B3CF982F9F7D9554933028F419
:1008A0000C5F1F4F9FE399830DC0833631F0833770
:1008B00071F0833509F059C021C0F8018081898326
:1008C0000E5F1F4F88248394912C530113C028017D
:1008D000F2E04F0E511CF801A080B18036FE03C03B
:1008E000692D70E002C06FEF7FEFC5010E94BC056B
:1008F0004C018201F32DFF773F2E16C0280122E024
:10090000420E511CF801A080B18036FE03C0692D53
:1009100070E002C06FEF7FEFC5010E94B1054C018E
:10092000F32DF0683F2E820133FC1BC0822D90E036
:1009300088169906B0F4B60180E290E00E94C705DF
:100940002A94F4CFF50137FC859137FE81915F0140
:10095000B60190E00E94C70521102A9421E0821A76
:1009600091088114910471F7E8C0843611F089363A
:1009700041F5F80137FE07C0608171818281938162
:100980000C5F1F4F08C060817181072E000C880B1F
:10099000990B0E5F1F4FF32DFF763F2E97FF09C077
:1009A00090958095709561957F4F8F4F9F4FF06820
:1009B0003F2E2AE030E0A3010E940306882E86180D
:1009C00045C0853731F4232D2F7EB22E2AE030E04A
:1009D00025C0932D997FB92E8F36C1F018F4883534
:1009E00079F0B5C0803719F0883721F0B0C0E92F11
:1009F000E061BE2EB4FE0DC0FB2DF460BF2E09C019
:100A000034FE0AC0292F2660B22E06C028E030E04E
:100A100005C020E130E002C020E132E0F801B7FE7D
:100A200007C060817181828193810C5F1F4F06C076
:100A30006081718180E090E00E5F1F4FA3010E94F2
:100A40000306882E8618FB2DFF773F2E36FE0DC03D
:100A5000232D2E7FA22E891458F434FE0BC032FCB5
:100A600009C0832D8E7EA82E05C0B82CA32C03C0F0
:100A7000B82C01C0B92CA4FE0FC0FE01E80DF11D79
:100A80008081803321F49A2D997EA92E09C0A2FE7F
:100A900006C0B394B39404C08A2D867809F0B39449
:100AA000A3FC11C0A0FE06C0B21488F4280C922C3E
:100AB0009B180EC0B21460F4B60180E290E00E9470
:100AC000C705B394F7CFB21418F42B1802C0982CB2
:100AD000212CA4FE10C0B60180E390E00E94C7055F
:100AE000A2FE17C0A1FC03C088E790E002C088E521
:100AF00090E0B6010CC08A2D867859F0A1FE02C0A4
:100B00008BE201C080E2A7FC8DE2B60190E00E947A
:100B1000C705891438F4B60180E390E00E94C70548
:100B20009A94F7CF8A94F301E80DF11D8081B60104
:100B300090E00E94C7058110F5CF222009F442CE33
:100B4000B60180E290E00E94C7052A94F6CFF60134
:100B50008681978102C08FEF9FEF2B96E2E10C9484
:100B60007D06FC010590615070400110D8F780951A
:100B700090958E0F9F1F0895FC0161507040019069
:100B80000110D8F7809590958E0F9F1F08950F93B1
:100B90001F93CF93DF93FB01238121FD03C08FEFD0
:100BA0009FEF2CC022FF16C04681578124813581DA
:100BB0004217530744F4A081B1819D012F5F3F4F3D
:100BC000318320838C93268137812F5F3F4F37837A
:100BD000268314C08B01EC01FB010084F185E02D1C
:100BE0000995892BE1F6D80116968D919C9117975E
:100BF000019617969C938E931697CE01DF91CF9115
:100C00001F910F910895FA01AA27283051F1203140
:100C100081F1E8946F936E7F6E5F7F4F8F4F9F4F90
:100C2000AF4FB1E03ED0B4E03CD0670F781F891FD2
:100C30009A1FA11D680F791F8A1F911DA11D6A0FA0
:100C4000711D811D911DA11D20D009F468943F9153
:100C50002AE0269F11243019305D3193DEF6CF0152
:100C60000895462F4770405D4193B3E00FD0C9F718
:100C7000F6CF462F4F70405D4A3318F0495D31FD85
:100C80004052419302D0A9F7EACFB4E0A6959795D8
:100C9000879577956795BA95C9F7009761057105AE
:100CA00008959B01AC010A2E0694579547953795F8
:100CB0002795BA95C9F7620F731F841F951FA01D52
:100CC00008952F923F924F925F926F927F928F92F0
:100CD0009F92AF92BF92CF92DF92EF92FF920F93CB
:100CE0001F93CF93DF93CDB7DEB7CA1BDB0B0FB6D5
:100CF000F894DEBF0FBECDBF09942A883988488892
:100D00005F846E847D848C849B84AA84B984C88427
:100D1000DF80EE80FD800C811B81AA81B981CE0F1E
:100D2000D11D0FB6F894DEBF0FBECDBFED01089503
:040D3000F894FFCF65
:100D340025640048454C4C4F204D61686D6F7564C7
:100D44000041444320494E495400414443203A2041
:080D540000544D50203A20002C
:00000001FF
