:100000000C942A000C948A010C94B1010C94D80130
:100010000C9441030C9468030C9447000C94470023
:100020000C9447000C9447000C94F3020C941A03B0
:100030000C9447000C9447000C9447000C94470024
:100040000C9447000C9447000C9447000C94470014
:100050000C94470011241FBECFE5D8E0DEBFCDBF12
:1000600010E0A0E6B0E0E2E2F7E002C005900D92F9
:10007000AA37B107D9F720E0AAE7B0E001C01D9286
:10008000AF3AB207E1F70E941C010C948F030C9465
:1000900000008BB384608BBB83ED90E30197F1F795
:1000A00000C000008BB38B7F8BBB08958AB31ABA54
:1000B0008BB381608BBB8BB38D7F8BBB0E94490060
:1000C0008AB38FEF8ABB8BB38E7F8BBB0895CF93A0
:1000D000C82F0E9456000E9456008BB39C2F969505
:1000E00098778778892B8BBB8BB38C7F8BBB0E94D7
:1000F00049002BB38C2F90E0880F991F880F991F10
:10010000880F991F922F97788877892B8BBB8BB399
:100110008C7F8BBB0E944900CF91089581E00E94A3
:100120006700089587E893E10197F1F700C00000A8
:100130008AB387608ABB8BB3887F8BBB8FEF8ABB08
:1001400085EA9EE00197F1F700C000000E948E0052
:1001500082E00E94670088E20E94670086E00E94B9
:10016000670080E80E9467008CE00E9467000895A5
:10017000CF93C82F8BB39C2F969598778778892B30
:100180008BBB8BB382608BBB8BB38E7F8BBB0E9490
:1001900049002BB38C2F90E0880F991F880F991F6F
:1001A000880F991F922F97788877892B8BBB8BB3F9
:1001B00082608BBB8BB38E7F8BBB0E944900CF913B
:1001C0000895823039F4603168F480EC860F0E9423
:1001D00067000895813031F4603120F480E8860FA3
:1001E0000E94670008950F931F93CF93DF938C01B4
:1001F000C0E0D0E018C00F5F1F4F0E94B8002196EA
:10020000C031D10529F460E082E00E94E1000BC01A
:10021000C032D10541F40E948E0060E081E00E946E
:10022000E100C0E0D0E0F80180818111E4CFDF91EE
:10023000CF911F910F9108950E9492000E948E000D
:1002400080E690E00E94F3002FE38DE093E02150E0
:1002500080409040E1F700C000000E948E00EBE774
:10026000F0E0108285E0838380E28283158214822D
:1002700088E481831782168211861086CF010E943E
:100280000C0268EC80E00E94DE0289B7836089BFBF
:1002900041E063E087E390E00E946D018EE690E02C
:1002A0000E94F3002FE38DE093E0215080409040C6
:1002B000E1F700C000000E948E0080E690E00E94FE
:1002C000F3002FE38DE093E0215080409040E1F770
:1002D00000C000000E948E00FFCF413061F421E099
:1002E00030E002C0220F331F6A95E2F7FC01308133
:1002F000232B2083089541110CC021E030E002C07F
:10030000220F331F6A95E2F72095FC0130812323E9
:10031000208308951F920F920FB60F9211242F93EE
:100320003F934F935F936F937F938F939F93AF937D
:10033000BF93EF93FF93E0918700F09188000995B8
:10034000FF91EF91BF91AF919F918F917F916F91AD
:100350005F914F913F912F910F900FBE0F901F9083
:1003600018951F920F920FB60F9211242F933F935F
:100370004F935F936F937F938F939F93AF93BF93AD
:10038000EF93FF93E0918B00F0918C000995FF9122
:10039000EF91BF91AF919F918F917F916F915F91FD
:1003A0004F913F912F910F900FBE0F901F90189576
:1003B0001F920F920FB60F9211242F933F934F93DA
:1003C0005F936F937F938F939F93AF93BF93EF93BD
:1003D000FF93E0918F00F09190000995FF91EF91CC
:1003E000BF91AF919F918F917F916F915F914F914D
:1003F0003F912F910F900FBE0F901F90189588235B
:1004000029F0813029F0823029F4089580E00895A0
:1004100081E0089580E00895CF93DF93EC01888117
:100420000E94FF0180937A00282F30E0D901AA0FA3
:10043000BB1FA901440F551F440F551F440F551FE3
:10044000A40FB51FAF56BF4F9AE0FE0101900D9269
:100450009A95E1F7811148C093B7F901EE0FFF1F9C
:10046000E40FF51FEF56FF4F8181892B83BF23B720
:1004700080917A0090E0FC01EE0FFF1F880F991F1A
:10048000880F991F880F991FE80FF91FEF56FF4F2C
:100490008281822B83BF23B780917A0090E0FC0198
:1004A000EE0FFF1F880F991F880F991F880F991F44
:1004B000E80FF91FEF56FF4F8381822B83BF22B7CE
:1004C00080917A0090E0FC01EE0FFF1F880F991FCA
:1004D000880F991F880F991FE80FF91FEF56FF4FDC
:1004E0008481822B82BF67C0813009F464C082306E
:1004F00009F061C095B5F901EE0FFF1F220F331F00
:10050000220F331F220F331FE20FF31FEF56FF4F4F
:100510008181892B85BD25B580917A0090E0FC0111
:10052000EE0FFF1F880F991F880F991F880F991FC3
:10053000E80FF91FEF56FF4F8281822B85BD25B54D
:1005400080917A0090E0FC01EE0FFF1F880F991F49
:10055000880F991F880F991FE80FF91FEF56FF4F5B
:100560008381822B85BD24B580917A0090E0FC01C7
:10057000EE0FFF1F880F991F880F991F880F991F73
:10058000E80FF91FEF56FF4F8481822B84BD22B5FF
:1005900080917A0090E0FC01EE0FFF1F880F991FF9
:1005A000880F991F880F991FE80FF91FEF56FF4F0B
:1005B0008581822B82BDDF91CF910895CF93C62F85
:1005C0000E94FF0180937A00811104C08CB7C82B70
:1005D000CCBF07C0813029F0823019F483B5C82B15
:1005E000C3BDCF9108951F920F920FB60F921124A1
:1005F0002F933F934F935F936F937F938F939F932B
:10060000AF93BF93EF93FF93E0919700F091980021
:100610000995FF91EF91BF91AF919F918F917F913C
:100620006F915F914F913F912F910F900FBE0F905F
:100630001F9018951F920F920FB60F9211242F93AF
:100640003F934F935F936F937F938F939F93AF935A
:10065000BF93EF93FF93E0919900F0919A00099571
:10066000FF91EF91BF91AF919F918F917F916F918A
:100670005F914F913F912F910F900FBE0F901F9060
:1006800018951F920F920FB60F9211242F933F933C
:100690004F935F936F937F938F939F93AF93BF938A
:1006A000EF93FF93E091AB00F091AC000995FF91BF
:1006B000EF91BF91AF919F918F917F916F915F91DA
:1006C0004F913F912F910F900FBE0F901F90189553
:1006D0001F920F920FB60F9211242F933F934F93B7
:1006E0005F936F937F938F939F93AF93BF93EF939A
:1006F000FF93E091AD00F091AE000995FF91EF916D
:10070000BF91AF919F918F917F916F915F914F9129
:100710003F912F910F900FBE0F901F901895F89456
:02072000FFCF09
:1007220048454C4C4F204D61686D6F7564005469AB
:0A0732006D657220496E69740000C5
:00000001FF
