S00E00004472697665722E73726563AA
S11300000C942A000C94A4010C94CB010C94F201DE
S11300100C9447000C9447000C9447000C94470040
S11300200C9447000C9447000C9447000C94470030
S11300300C9447000C9447000C9447000C94470020
S11300400C9447000C9447000C9447000C94470010
S11300500C94470011241FBECFE5D8E0DEBFCDBF0E
S113006010E0A0E6B0E0EEE3FAE002C005900D92E5
S1130070AA38B107D9F720E0AAE8B0E001C01D9280
S1130080A639B207E1F70E9421010C941D050C94D6
S1130090000088B3886088BB83ED90E30197F1F793
S11300A000C0000088B3877F88BB089584B314BA66
S11300B088B3846088BB88B38D7F88BB0E94490065
S11300C084B38FEF84BB88B38B7F88BB0895CF93B1
S11300D0C82F0E94560087B3866087BB88B3897F88
S11300E088BBC5BB89EF90E00197F1F700C0000021
S11300F00E944900CF91089581E00E94670008950D
S113010087E893E10197F1F700C0000087B38E60A0
S113011087BB88B3817F88BB8FEF84BB85EA9EE071
S11301200197F1F700C000000E947C0088E30E9460
S1130130670086E00E94670080E80E9467008CE008
S11301400E9467000895CF93C82F0E945600C5BB34
S113015088B38B7F88BB88B3826088BB89EF90E0CB
S11301600197F1F700C000000E944900CF91089563
S1130170823039F4603168F480EC860F0E946700A5
S11301800895813031F4603120F480E8860F0E94B4
S1130190670008950F931F93CF93DF938C01C0E002
S11301A0D0E018C00F5F1F4F0E94A3002196C031FA
S11301B0D10529F460E082E00E94B8000BC0C0328F
S11301C0D10541F40E947C0060E081E00E94B80007
S11301D0C0E0D0E0F80180818111E4CFDF91CF91BC
S11301E01F910F9108950F931F93CF93DF93CDB772
S11301F0DEB764970FB6F894DEBF0FBECDBF9F93F2
S11302008F937F936F9380E690E09F938F938E01FB
S11302100F5F1F4F1F930F930E943302C8010E9468
S1130220CA000FB6F894DEBF0FBECDBF64960FB6FA
S1130230F894DEBF0FBECDBFDF91CF911F910F9118
S113024008950E94800083E690E00E94CA002FE98E
S113025086E891E0215080409040E1F700C0000022
S11302600E947C0066E081E00E94780181E790E0D2
S11302700E94CA002FE986E891E021508040904016
S1130280E1F700C000000E947C008AE790E00E9431
S1130290CA0083E00E9492016C01E12CF12CC70199
S11302A0B6010E94F30060E082E00E94B80081E899
S11302B090E00E94CA00A8E8B3E1A70196010E9459
S11302C01902052E5AE096958795779567955A9564
S11302D0D1F7502D0E94F3002FED83E994E02150D3
S11302E080409040E1F700C000000E947C00CDCF28
S11302F0813039F018F0823041F00AC087B187B9F3
S113030007C087B1806487B903C087B1806C87B99F
S113031086B1887F86B986B1682B66B986B1806854
S113032086B9089597B1907E97B997B1892B87B90B
S113033086B1806486B93699FECF24B185B190E048
S1130340982F8827822B08951F920F920FB60F9231
S113035011242F933F934F935F936F937F938F93C6
S11303609F93AF93BF93EF93FF93E0918C00F09131
S11303708D000995FF91EF91BF91AF919F918F915E
S11303807F916F915F914F913F912F910F900FBE8D
S11303900F901F9018951F920F920FB60F92112471
S11303A02F933F934F935F936F937F938F939F9379
S11303B0AF93BF93EF93FF93E0919000F09191007E
S11303C00995FF91EF91BF91AF919F918F917F918B
S11303D06F915F914F913F912F910F900FBE0F90AE
S11303E01F9018951F920F920FB60F9211242F93FE
S11303F03F934F935F936F937F938F939F93AF93A9
S1130400BF93EF93FF93E0919400F09195000995C9
S1130410FF91EF91BF91AF919F918F917F916F91D8
S11304205F914F913F912F910F900FBE0F901F90AE
S113043018950E942402A59F900DB49F900DA49F2F
S1130440800D911D11240895A29FB001B39FC00196
S1130450A39F700D811D1124911DB29F700D811DEC
S11304601124911D0895AEE0B0E0E9E3F2E00C94AC
S1130470F4040D891E8986E08C831A8309838FEF27
S11304809FE79E838D83AE01475E5F4F6F89788DB2
S1130490CE0101960E945502EF81F885E00FF11F0D
S11304A010822E96E4E00C941005ABE0B0E0EBE58E
S11304B0F2E00C94E6046C017B018A01FC011782D2
S11304C01682838181FFCCC1CE0101963C01F601E5
S11304D09381F70193FD859193FF81917F01882397
S11304E009F4BAC1853239F493FD859193FF819162
S11304F07F01853229F4B60190E00E944C04E7CFD5
S1130500912C212C312CFFE1F315D8F08B3279F0AA
S113051038F4803279F08332A1F4232D20611DC098
S11305208D3261F0803369F4232D216016C0832D50
S11305308260382EE32DE4603E2E2AC0F32DF8604D
S11305401DC037FC2DC020ED280F2A3040F08E321C
S1130550B9F436FC81C1232D2064322E19C036FE35
S113056006C08AE0989E200D1124922E11C0EAE064
S11305702E9E200D1124222EF32DF0623F2E08C052
S11305808C3621F4832D8068382E02C0883641F4DD
S1130590F70193FD859193FF81917F018111B3CF81
S11305A0982F9F7D9554933028F40C5F1F4F9FE341
S11305B099830DC0833631F0833771F0833509F0A8
S11305C059C021C0F801808189830E5F1F4F8824A0
S11305D08394912C530113C02801F2E04F0E511C57
S11305E0F801A080B18036FE03C0692D70E002C01E
S11305F06FEF7FEFC5010E9441044C018201F32D8E
S1130600FF773F2E16C0280122E0420E511CF8014C
S1130610A080B18036FE03C0692D70E002C06FEF88
S11306207FEFC5010E9436044C01F32DF0683F2E84
S1130630820133FC1BC0822D90E088169906B0F429
S1130640B60180E290E00E944C042A94F4CFF501B4
S113065037FC859137FE81915F01B60190E00E94DD
S11306604C0421102A9421E0821A910881149104E7
S113067071F7E8C0843611F0893641F5F80137FE88
S113068007C060817181828193810C5F1F4F08C014
S113069060817181072E000C880B990B0E5F1F4F30
S11306A0F32DFF763F2E97FF09C0909580957095A6
S11306B061957F4F8F4F9F4FF0683F2E2AE030E0C7
S11306C0A3010E948804882E861845C0853731F41A
S11306D0232D2F7EB22E2AE030E025C0932D997F62
S11306E0B92E8F36C1F018F4883579F0B5C080374B
S11306F019F0883721F0B0C0E92FE061BE2EB4FEB6
S11307000DC0FB2DF460BF2E09C034FE0AC0292F92
S11307102660B22E06C028E030E005C020E130E0BB
S113072002C020E132E0F801B7FE07C060817181A8
S1130730828193810C5F1F4F06C06081718180E0CC
S113074090E00E5F1F4FA3010E948804882E861834
S1130750FB2DFF773F2E36FE0DC0232D2E7FA22EBC
S1130760891458F434FE0BC032FC09C0832D8E7EEC
S1130770A82E05C0B82CA32C03C0B82C01C0B92CDA
S1130780A4FE0FC0FE01E80DF11D8081803321F429
S11307909A2D997EA92E09C0A2FE06C0B394B394E3
S11307A004C08A2D867809F0B394A3FC11C0A0FE7E
S11307B006C0B21488F4280C922C9B180EC0B214F4
S11307C060F4B60180E290E00E944C04B394F7CF49
S11307D0B21418F42B1802C0982C212CA4FE10C0BB
S11307E0B60180E390E00E944C04A2FE17C0A1FC75
S11307F003C088E790E002C088E590E0B6010CC031
S11308008A2D867859F0A1FE02C08BE201C080E2F5
S1130810A7FC8DE2B60190E00E944C04891438F4E0
S1130820B60180E390E00E944C049A94F7CF8A9436
S1130830F301E80DF11D8081B60190E00E944C04A3
S11308408110F5CF222009F442CEB60180E290E077
S11308500E944C042A94F6CFF6018681978102C047
S11308608FEF9FEF2B96E2E10C940205FC010590BB
S1130870615070400110D8F7809590958E0F9F1F9E
S11308800895FC016150704001900110D8F78095E3
S113089090958E0F9F1F08950F931F93CF93DF930F
S11308A0FB01238121FD03C08FEF9FEF2CC022FFAA
S11308B016C046815781248135814217530744F479
S11308C0A081B1819D012F5F3F4F318320838C93A1
S11308D0268137812F5F3F4F3783268314C08B01D6
S11308E0EC01FB010084F185E02D0995892BE1F6EB
S11308F0D80116968D919C911797019617969C9303
S11309008E931697CE01DF91CF911F910F91089589
S1130910FA01AA27283051F1203181F1E8946F932C
S11309206E7F6E5F7F4F8F4F9F4FAF4FB1E03ED0D2
S1130930B4E03CD0670F781F891F9A1FA11D680F70
S1130940791F8A1F911DA11D6A0F711D811D911DA3
S1130950A11D20D009F468943F912AE0269F112418
S11309603019305D3193DEF6CF010895462F47707C
S1130970405D4193B3E00FD0C9F7F6CF462F4F70D7
S1130980405D4A3318F0495D31FD4052419302D035
S1130990A9F7EACFB4E0A6959795879577956795DB
S11309A0BA95C9F700976105710508959B01AC01DB
S11309B00A2E06945795479537952795BA95C9F702
S11309C0620F731F841F951FA01D08952F923F92DD
S11309D04F925F926F927F928F929F92AF92BF924B
S11309E0CF92DF92EF92FF920F931F93CF93DF93F7
S11309F0CDB7DEB7CA1BDB0B0FB6F894DEBF0FBE54
S1130A00CDBF09942A88398848885F846E847D84A0
S1130A108C849B84AA84B984C884DF80EE80FD80A2
S1130A200C811B81AA81B981CE0FD11D0FB6F89418
S1110A30DEBF0FBECDBFED010895F894FFCFD9
S1130A3E25640048454C4C4F204D61686D6F7564BC
S1130A4E0041444320494E495400414443203A2036
S10D0A5E006D566F6C74203A2000FE
S9030000FC
