:100000000C942A000C9434000C9434000C943400AA
:100010000C9434000C9434000C9434000C94340090
:100020000C9434000C9434000C9434000C94340080
:100030000C9434000C9434000C9434000C94340070
:100040000C9434000C9434000C9434000C94340060
:100050000C94340011241FBECFE5D8E0DEBFCDBF25
:100060000E9470000C94D2000C940000413061F4A6
:1000700021E030E002C0220F331F6A95E2F7FC0155
:100080003081232B2083089541110CC021E030E002
:1000900002C0220F331F6A95E2F72095FC013081E0
:1000A000232320830895FC01808190E002C0959570
:1000B00087956A95E2F78170089521E030E002C0EB
:1000C000220F331F6A95E2F7FC013081232720833A
:1000D000089541E00E94360008950E945D00089551
:1000E00060E08AE390E00E94690061E08AE390E0CA
:1000F0000E94690062E08AE390E00E94690063E088
:100100008AE390E00E94CB0064E08AE390E00E94E2
:10011000CB0060E08BE390E00E946D0061E08BE338
:1001200090E00E946D002FE78AE196E02150804028
:100130009040E1F700C0000060E08BE390E00E9497
:100140006D0061E08BE390E00E946D0062E08BE364
:1001500090E00E946D008FE493EC0197F1F700C0EE
:10016000000063E089E390E00E94CF00882331F033
:1001700060E08BE390E00E946D00E8CF64E089E3EB
:1001800090E00E94CF00882309F361E08BE390E0C8
:100190000E946D00DBCF40E00E94360008950E946F
:0801A00053000895F894FFCF0D
:00000001FF
