S011000070726F6A6563745F312E737265638C
S11300000C942A000C943F000C943F000C943F0085
S11300100C943F000C943F000C943F000C943F0060
S11300200C943F000C943F000C943F000C943F0050
S11300300C943F000C943F000C943F000C943F0040
S11300400C943F000C943F000C943F000C943F0030
S11300500C943F0011241FBECFE5D8E0DEBFCDBF16
S113006010E0A0E6B0E0E4E4FFE002C005900D92E9
S1130070A637B107D9F70E94ED010C94A0070C94A0
S1130080000084B3807F84BB84B3806F84BB8FEF14
S113009085BB08950F931F93CF93DF9340E050E007
S11300A09DC035B3E0E6F0E081E090E08C01008093
S11300B002C0000F111F0A94E2F7EC01028002C093
S11300C0CC0FDD1F0A94E2F7DC01048002C0AA0F02
S11300D0BB1F0A94E2F7BC01068002C0660F771FBB
S11300E00A94E2F72C2F202B2A2B262B232B25BB1B
S11300F025B3FA01EE0FFF1FE05AFF4F008002C044
S1130100880F991F0A94E2F78095822385BB60E0EB
S113011070E05EC083B3FB01EE0FFF1FE859FF4F91
S1130120208190E0022E02C0959587950A94E2F70B
S113013080FD4CC083B390E0022E02C09595879554
S11301400A94E2F780FFF6CF41305105C9F024F458
S11301504115510541F03AC042305105F1F04330A8
S1130160510541F133C061157105F1F1613071053B
S1130170E9F162307105E1F16330710539F53AC096
S113018061157105C9F161307105C1F16230710504
S1130190B9F163307105D1F435C061157105A1F170
S11301A06130710599F16230710591F16330710527
S11301B069F430C06115710579F16130710571F12F
S11301C06230710569F16330710561F16F5F7F4FD2
S11301D0643071050CF49ECF4F5F5F4F443051057E
S11301E00CF45FCF81E41FC087E31DC084E31BC010
S11301F081E319C08FE317C088E315C085E313C0FA
S113020082E311C080E30FC089E30DC086E30BC015
S113021083E309C08DE307C08FE205C08AE203C00F
S11302208DE201C08BE2DF91CF911F910F91089570
S113023088B3886088BB83ED90E30197F1F700C031
S1130240000088B3877F88BB08958AB31ABA88B33D
S1130250846088BB88B38D7F88BB0E9418018AB3F1
S11302608FEF8ABB88B38B7F88BB0895CF93C82F49
S11302700E9425010E942501CBBB88B3897F88BBDE
S113028089EF90E00197F1F700C000000E94180187
S11302900E9425018BB38F709C2F907F892B8BBB81
S11302A088B3897F88BB0E9418012BB330E1C39FB8
S11302B0C0011124922F9F70892B8BBB88B3897F37
S11302C088BB0E941801CF91089581E00E943601F5
S11302D0089587E893E10197F1F700C0000087B320
S11302E08E6087BB88B3817F88BB8FEF8ABB85EA2A
S11302F09EE00197F1F700C000000E94650182E0D2
S11303000E94360188E20E94360186E00E9436018E
S113031080E80E9436018FE00E9436010895CF9351
S1130320C82F8BB38F709C2F907F892B8BBB88B386
S1130330826088BB88B38B7F88BB0E9418012BB373
S113034030E1C39FC0011124922F9F70892B8BBB76
S113035088B3826088BB88B38B7F88BB0E941801F6
S1130360CF910895823039F4603168F480EC860FBF
S11303700E9436010895813031F4603120F480E820
S1130380860F0E94360108950F931F93CF93DF9336
S11303908C01C0E0D0E018C00F5F1F4F0E948F0196
S11303A02196C031D10529F460E082E00E94B201B7
S11303B00BC0C032D10541F40E94650160E081E0C8
S11303C00E94B201C0E0D0E0F80180818111E4CF45
S11303D0DF91CF911F910F910895CF93DF93CDB704
S11303E0DEB7C056D1090FB6F894DEBF0FBECDBF3D
S11303F00E9469010E94410083ED90E30197F1F7A7
S113040000C0000000E0E12CF12C0E944A00182FEB
S11304108F3319F08134C9F303C00E946501F5CF0D
S11304208B3231F08D3221F08A3211F08F3231F477
S1130430812F0E948F01912E01E0E7CF8D3309F0C7
S1130440DCC00E948F01E1E0F0E0EC0FFD1FEF0D36
S1130450F11D1082E1E2F0E0EC0FFD1FEE0DF11D45
S11304601082CE0181960E9490043C01872C880C56
S11304708808CE0101960E949004FC011F2F110FE1
S1130480110B9BE299122AC0262D372D482D582D89
S1130490682D782D882D982DAE2EBF2EC12ED12EED
S11304A0E12EF12E012F0E946F049F938F937F936F
S11304B06F935F934F933F932F9380E790E09F93C5
S11304C08F93CE018F5B9F4F9F938F930E94B604AF
S11304D00FB6F894DEBF0FBECDBF86C09DE2991261
S11304E02BC02E2F3F2F412F512F612F712F812F82
S11304F0912FA62CB72CC82CD82CE82CF82C082D1E
S1130500182D0E9478049F938F937F936F935F932A
S11305104F933F932F9380E790E09F938F93CE0167
S11305208F5B9F4F9F938F930E94B6040FB6F894EE
S1130530DEBF0FBECDBF58C09AE299122AC0AE2EBC
S1130540BF2EC12ED12EE12EF12E012F262D372DB7
S1130550482D582D682D782D882D982D0E9416042D
S11305609F938F937F936F935F934F933F932F93B7
S113057080E790E09F938F93CE018F5B9F4F9F9373
S11305808F930E94B6040FB6F894DEBF0FBECDBFA2
S11305902BC09FE2991228C0BF01FF0F880B990B53
S11305A00E948A036B017C01B301770C880B990BC1
S11305B00E948A039B01AC01C701B6010E94160385
S11305C09F938F937F936F9383E790E09F938F9391
S11305D0CE018F5B9F4F9F938F930E94B6040FB6FB
S11305E0F894DEBF0FBECDBFCE018F5B9F4F0E943C
S11305F0C40100E0E12CF12C08CF0E948F0101110D
S113060009C0E1E0F0E0EC0FFD1FEF0DF11D1083D8
S1130610F394FBCE013009F0F8CEE1E2F0E0EC0F08
S1130620FD1FEE0DF11D1083E394EFCE0E942A030B
S11306300C94DC030E94D50358F00E94CE0340F0D2
S113064029F45F3F29F00C94C50351110C94100454
S11306500C94CB030E94ED0368F39923B1F3552363
S113066091F3951B550BBB27AA27621773078407C1
S113067038F09F5F5F4F220F331F441FAA1FA9F357
S113068035D00E2E3AF0E0E832D091505040E69545
S1130690001CCAF72BD0FE2F29D0660F771F881FA6
S11306A0BB1F261737074807AB07B0E809F0BB0B99
S11306B0802DBF01FF2793585F4F3AF09E3F5105AD
S11306C078F00C94C5030C9410045F3FE4F3983E57
S11306D0D4F3869577956795B795F7959F5FC9F796
S11306E0880F911D9695879597F90895E1E0660F17
S11306F0771F881FBB1F621773078407BA0720F090
S1130700621B730B840BBA0BEE1F88F7E0950895F8
S1130710E89409C097FB3EF4909580957095619597
S11307207F4F8F4F9F4F9923A9F0F92F96E9BB274D
S11307309395F695879577956795B795F111F8CFC9
S1130740FAF4BB0F11F460FF1BC06F5F7F4F8F4F34
S11307509F4F16C0882311F096E911C0772321F02A
S11307609EE8872F762F05C0662371F096E8862FC2
S113077070E060E02AF09A95660F771F881FDAF719
S1130780880F9695879597F9089597F99F6780E85C
S113079070E060E008959FEF80EC089500240A94CF
S11307A01616170618060906089500240A94121648
S11307B01306140605060895092E0394000C11F47B
S11307C0882352F0BB0F40F4BF2B11F460FF04C028
S11307D06F5F7F4F8F4F9F4F089557FD9058440F81
S11307E0551F59F05F3F71F04795880F97FB991F8C
S11307F061F09F3F79F08795089512161306140649
S1130800551FF2CF4695F1DF08C0161617061806D5
S1130810991FF1CF86957105610508940895E894B0
S1130820BB2766277727CB0197F90895DF93CF93EA
S11308301F930F939A9DF02D219FF00D8B9DF00D2A
S11308408A9DE02DF10D039FF00D029FE00DF11D37
S11308504E9DE00DF11D5E9DF00D4F9DF00D7F93BB
S11308606F93BF92AF925F934F93D5010E9481041F
S11308708B01AC01D7010E948104EB01E80FF91F41
S1130880D6010E9466042F913F91D6010E948104F3
S1130890C60FD71FE81FF91FAF91BF910E946604CE
S11308A02F913F910E948104C60FD71FE81FF91FA3
S11308B0D6010E948104E60FF71F9801BE01CF0103
S11308C011240F911F91CF91DF9108950E9481040B
S11308D0460F571FC81FD91F08F4319608952A0DD3
S11308E03B1D4C1D5D1D6E1D7F1D801F911F0895B6
S11308F02A193B094C095D096E097F09800B910B8C
S11309000895A29FB001B39FC001A39F700D811DE4
S11309101124911DB29F700D811D1124911D089504
S1130920FC0188279927E89421912032E9F32930A2
S113093010F02E30C8F32B3241F02D3239F4689484
S113094004C00E94AE04820F911D219120532A30CD
S1130950C0F31EF4909581959F4F08957AE0979F78
S1130960902D879F802D910D11240895AEE0B0E065
S1130970ECEBF4E00C9477070D891E8986E08C83F8
S11309801A8309838FEF9FE79E838D83AE01475EB1
S11309905F4F6F89788DCE0101960E94D804EF8154
S11309A0F885E00FF11F10822E96E4E00C94930773
S11309B0ABE0B0E0EEEDF4E00C9469076C017B0170
S11309C08A01FC0117821682838181FFCCC1CE018A
S11309D001963C01F6019381F70193FD859193FF04
S11309E081917F01882309F4BAC1853239F493FDDA
S11309F0859193FF81917F01853229F4B60190E0BE
S1130A000E94CF06E7CF912C212C312CFFE1F31566
S1130A10D8F08B3279F038F4803279F08332A1F453
S1130A20232D20611DC08D3261F0803369F4232DA4
S1130A30216016C0832D8260382EE32DE4603E2EA3
S1130A402AC0F32DF8601DC037FC2DC020ED280FFF
S1130A502A3040F08E32B9F436FC81C1232D206453
S1130A60322E19C036FE06C08AE0989E200D11244D
S1130A70922E11C0EAE02E9E200D1124222EF32D79
S1130A80F0623F2E08C08C3621F4832D8068382E06
S1130A9002C0883641F4F70193FD859193FF81915B
S1130AA07F018111B3CF982F9F7D9554933028F403
S1130AB00C5F1F4F9FE399830DC0833631F083375A
S1130AC071F0833509F059C021C0F8018081898310
S1130AD00E5F1F4F88248394912C530113C0280167
S1130AE0F2E04F0E511CF801A080B18036FE03C025
S1130AF0692D70E002C06FEF7FEFC5010E94C4064C
S1130B004C018201F32DFF773F2E16C0280122E00D
S1130B10420E511CF801A080B18036FE03C0692D3D
S1130B2070E002C06FEF7FEFC5010E94B9064C016F
S1130B30F32DF0683F2E820133FC1BC0822D90E020
S1130B4088169906B0F4B60180E290E00E94CF06C0
S1130B502A94F4CFF50137FC859137FE81915F012A
S1130B60B60190E00E94CF0621102A9421E0821A57
S1130B7091088114910471F7E8C0843611F0893624
S1130B8041F5F80137FE07C060817181828193814C
S1130B900C5F1F4F08C060817181072E000C880B09
S1130BA0990B0E5F1F4FF32DFF763F2E97FF09C061
S1130BB090958095709561957F4F8F4F9F4FF0680A
S1130BC03F2E2AE030E0A3010E940B07882E8618EE
S1130BD045C0853731F4232D2F7EB22E2AE030E034
S1130BE025C0932D997FB92E8F36C1F018F488351E
S1130BF079F0B5C0803719F0883721F0B0C0E92FFB
S1130C00E061BE2EB4FE0DC0FB2DF460BF2E09C002
S1130C1034FE0AC0292F2660B22E06C028E030E038
S1130C2005C020E130E002C020E132E0F801B7FE67
S1130C3007C060817181828193810C5F1F4F06C060
S1130C406081718180E090E00E5F1F4FA3010E94DC
S1130C500B07882E8618FB2DFF773F2E36FE0DC01E
S1130C60232D2E7FA22E891458F434FE0BC032FC9F
S1130C7009C0832D8E7EA82E05C0B82CA32C03C0DA
S1130C80B82C01C0B92CA4FE0FC0FE01E80DF11D63
S1130C908081803321F49A2D997EA92E09C0A2FE69
S1130CA006C0B394B39404C08A2D867809F0B39433
S1130CB0A3FC11C0A0FE06C0B21488F4280C922C28
S1130CC09B180EC0B21460F4B60180E290E00E945A
S1130CD0CF06B394F7CFB21418F42B1802C0982C93
S1130CE0212CA4FE10C0B60180E390E00E94CF0640
S1130CF0A2FE17C0A1FC03C088E790E002C088E50B
S1130D0090E0B6010CC08A2D867859F0A1FE02C08D
S1130D108BE201C080E2A7FC8DE2B60190E00E9464
S1130D20CF06891438F4B60180E390E00E94CF0620
S1130D309A94F7CF8A94F301E80DF11D8081B601EE
S1130D4090E00E94CF068110F5CF222009F442CE14
S1130D50B60180E290E00E94CF062A94F6CFF60115
S1130D608681978102C08FEF9FEF2B96E2E10C946E
S1130D708507FC010590615070400110D8F78095FB
S1130D8090958E0F9F1F0895FC0161507040019053
S1130D900110D8F7809590958E0F9F1F08950F939B
S1130DA01F93CF93DF93FB01238121FD03C08FEFBA
S1130DB09FEF2CC022FF16C04681578124813581C4
S1130DC04217530744F4A081B1819D012F5F3F4F27
S1130DD0318320838C93268137812F5F3F4F378364
S1130DE0268314C08B01EC01FB010084F185E02D06
S1130DF00995892BE1F6D80116968D919C91179748
S1130E00019617969C938E931697CE01DF91CF91FE
S1130E101F910F910895FA01AA27283051F120312A
S1130E2081F1E8946F936E7F6E5F7F4F8F4F9F4F7A
S1130E30AF4FB1E03ED0B4E03CD0670F781F891FBC
S1130E409A1FA11D680F791F8A1F911DA11D6A0F8A
S1130E50711D811D911DA11D20D009F468943F913D
S1130E602AE0269F11243019305D3193DEF6CF013C
S1130E700895462F4770405D4193B3E00FD0C9F702
S1130E80F6CF462F4F70405D4A3318F0495D31FD6F
S1130E904052419302D0A9F7EACFB4E0A6959795C2
S1130EA0879577956795BA95C9F700976105710598
S1130EB008959B01AC010A2E0694579547953795E2
S1130EC02795BA95C9F7620F731F841F951FA01D3C
S1130ED008952F923F924F925F926F927F928F92DA
S1130EE09F92AF92BF92CF92DF92EF92FF920F93B5
S1130EF01F93CF93DF93CDB7DEB7CA1BDB0B0FB6BF
S1130F00F894DEBF0FBECDBF09942A88398848887B
S1130F105F846E847D848C849B84AA84B984C88411
S1130F20DF80EE80FD800C811B81AA81B981CE0F08
S1130F30D11D0FB6F894DEBF0FBECDBFED010895ED
S1070F40F894FFCF4F
S1130F44040005000600070000000100020003007D
S1090F542564002566007F
S9030000FC
