:100000000C942A000C9434000C9434000C943400AA
:100010000C9434000C9434000C9434000C94340090
:100020000C9434000C9434000C9434000C94340080
:100030000C9434000C9434000C9434000C94340070
:100040000C9434000C9434000C9434000C94340060
:100050000C94340011241FBECFE5D8E0DEBFCDBF25
:100060000E9436000C945D000C9400008AB38360FB
:100070008ABB87B3877087BB8BB38C7F8BBBB09BEE
:1000800009C08BB381608BBB8BB38D7F8BBBB09969
:10009000FECFF2CFB19B09C08BB382608BBB8BB319
:1000A0008E7F8BBBB199FECFE7CFB29BE5CF8BB3F1
:0E00B00083608BBBB299FECFDFCFF894FFCFF9
:00000001FF
