:100000000C942A000C9447000C9447000C94470071
:100010000C9447000C9447000C9447000C94470044
:100020000C9447000C9447000C9447000C94470034
:100030000C9447000C9447000C9447000C94470024
:100040000C9447000C9447000C9447000C94470014
:100050000C94470011241FBECFE5D8E0DEBFCDBF12
:1000600010E0A0E6B0E0EEEEF0E002C005900D92E8
:10007000AA36B107D9F720E0AAE6B0E001C01D9288
:10008000AB36B207E1F70E9449000C9475000C945E
:1000900000008AB38FEF8ABB87B3837087BBE09180
:1000A0006A000E2E000CFF0BE05AFF4F80818BBBC5
:1000B00080916A0088231CF410926A00F0CF8A3085
:1000C00024F089E080936A00EACFB09B06C08F5F7E
:1000D00080936A00B099FECFE2CFB19BE0CF815010
:0E00E00080936A00B199FECFDACFF894FFCF7B
:0A00EE003F065B4F666D7D077F6FD4
:00000001FF
